{
  "contractName": "CrossChainComm",
  "abi": [
    {
      "constant": true,
      "inputs": [],
      "name": "ETHUSD",
      "outputs": [
        {
          "name": "",
          "type": "string"
        }
      ],
      "payable": false,
      "stateMutability": "view",
      "type": "function"
    },
    {
      "inputs": [],
      "payable": true,
      "stateMutability": "payable",
      "type": "constructor"
    },
    {
      "payable": false,
      "stateMutability": "nonpayable",
      "type": "fallback"
    },
    {
      "anonymous": false,
      "inputs": [
        {
          "indexed": false,
          "name": "description",
          "type": "string"
        }
      ],
      "name": "LogInfo",
      "type": "event"
    },
    {
      "anonymous": false,
      "inputs": [
        {
          "indexed": false,
          "name": "price",
          "type": "string"
        }
      ],
      "name": "LogPriceUpdate",
      "type": "event"
    },
    {
      "anonymous": false,
      "inputs": [
        {
          "indexed": true,
          "name": "_owner",
          "type": "address"
        },
        {
          "indexed": true,
          "name": "_balance",
          "type": "uint256"
        }
      ],
      "name": "LogUpdate",
      "type": "event"
    },
    {
      "anonymous": false,
      "inputs": [
        {
          "indexed": false,
          "name": "jsonstring",
          "type": "string"
        }
      ],
      "name": "LogJson",
      "type": "event"
    },
    {
      "constant": false,
      "inputs": [
        {
          "name": "myid",
          "type": "bytes32"
        },
        {
          "name": "result",
          "type": "string"
        }
      ],
      "name": "__callback",
      "outputs": [],
      "payable": false,
      "stateMutability": "nonpayable",
      "type": "function"
    },
    {
      "constant": false,
      "inputs": [
        {
          "name": "id",
          "type": "bytes32"
        },
        {
          "name": "result",
          "type": "string"
        },
        {
          "name": "proof",
          "type": "bytes"
        }
      ],
      "name": "__callback",
      "outputs": [],
      "payable": false,
      "stateMutability": "nonpayable",
      "type": "function"
    },
    {
      "constant": false,
      "inputs": [],
      "name": "update",
      "outputs": [],
      "payable": true,
      "stateMutability": "payable",
      "type": "function"
    }
  ],
  "bytecode": "0x608060405233600560006101000a81548173ffffffffffffffffffffffffffffffffffffffff021916908373ffffffffffffffffffffffffffffffffffffffff1602179055503073ffffffffffffffffffffffffffffffffffffffff1631600560009054906101000a900473ffffffffffffffffffffffffffffffffffffffff1673ffffffffffffffffffffffffffffffffffffffff167fd176e7c6abd789c341ab22cef27aa1fbc7461f5f9d6a6e55faa0b9df32a7051460405160405180910390a3736f485c8bf6fc43ea212e93bbf8ce046c7f1cb4756000806101000a81548173ffffffffffffffffffffffffffffffffffffffff021916908373ffffffffffffffffffffffffffffffffffffffff1602179055506200017860017f01000000000000000000000000000000000000000000000000000000000000000260107f0100000000000000000000000000000000000000000000000000000000000000021762000197640100000000026401000000009004565b620001916200054b640100000000026401000000009004565b62001228565b60008060009054906101000a900473ffffffffffffffffffffffffffffffffffffffff1673ffffffffffffffffffffffffffffffffffffffff1614806200021857506000620002166000809054906101000a900473ffffffffffffffffffffffffffffffffffffffff16620005fa640100000000026401000000009004565b145b156200023b5762000239600062000605640100000000026401000000009004565b505b6000809054906101000a900473ffffffffffffffffffffffffffffffffffffffff1673ffffffffffffffffffffffffffffffffffffffff166338cc48316040518163ffffffff167c0100000000000000000000000000000000000000000000000000000000028152600401602060405180830381600087803b158015620002c157600080fd5b505af1158015620002d6573d6000803e3d6000fd5b505050506040513d6020811015620002ed57600080fd5b810190808051906020019092919050505073ffffffffffffffffffffffffffffffffffffffff16600160009054906101000a900473ffffffffffffffffffffffffffffffffffffffff1673ffffffffffffffffffffffffffffffffffffffff1614151562000459576000809054906101000a900473ffffffffffffffffffffffffffffffffffffffff1673ffffffffffffffffffffffffffffffffffffffff166338cc48316040518163ffffffff167c0100000000000000000000000000000000000000000000000000000000028152600401602060405180830381600087803b158015620003db57600080fd5b505af1158015620003f0573d6000803e3d6000fd5b505050506040513d60208110156200040757600080fd5b8101908080519060200190929190505050600160006101000a81548173ffffffffffffffffffffffffffffffffffffffff021916908373ffffffffffffffffffffffffffffffffffffffff1602179055505b600160009054906101000a900473ffffffffffffffffffffffffffffffffffffffff1673ffffffffffffffffffffffffffffffffffffffff1663688dcfd7826040518263ffffffff167c010000000000000000000000000000000000000000000000000000000002815260040180827effffffffffffffffffffffffffffffffffffffffffffffffffffffffffffff19167effffffffffffffffffffffffffffffffffffffffffffffffffffffffffffff19168152602001915050600060405180830381600087803b1580156200052f57600080fd5b505af115801562000544573d6000803e3d6000fd5b5050505050565b620005f76040805190810160405280600381526020017f55524c0000000000000000000000000000000000000000000000000000000000815250606060405190810160405280602e81526020017f6a736f6e2868747470733a2f2f6170692e626c6f636b6379706865722e636f6d81526020017f2f76312f6274632f74657374332900000000000000000000000000000000000081525062000627640100000000026401000000009004565b50565b6000813b9050919050565b60006200062062000c05640100000000026401000000009004565b9050919050565b60008060008060009054906101000a900473ffffffffffffffffffffffffffffffffffffffff1673ffffffffffffffffffffffffffffffffffffffff161480620006ab57506000620006a96000809054906101000a900473ffffffffffffffffffffffffffffffffffffffff16620005fa640100000000026401000000009004565b145b15620006ce57620006cc600062000605640100000000026401000000009004565b505b6000809054906101000a900473ffffffffffffffffffffffffffffffffffffffff1673ffffffffffffffffffffffffffffffffffffffff166338cc48316040518163ffffffff167c0100000000000000000000000000000000000000000000000000000000028152600401602060405180830381600087803b1580156200075457600080fd5b505af115801562000769573d6000803e3d6000fd5b505050506040513d60208110156200078057600080fd5b810190808051906020019092919050505073ffffffffffffffffffffffffffffffffffffffff16600160009054906101000a900473ffffffffffffffffffffffffffffffffffffffff1673ffffffffffffffffffffffffffffffffffffffff16141515620008ec576000809054906101000a900473ffffffffffffffffffffffffffffffffffffffff1673ffffffffffffffffffffffffffffffffffffffff166338cc48316040518163ffffffff167c0100000000000000000000000000000000000000000000000000000000028152600401602060405180830381600087803b1580156200086e57600080fd5b505af115801562000883573d6000803e3d6000fd5b505050506040513d60208110156200089a57600080fd5b8101908080519060200190929190505050600160006101000a81548173ffffffffffffffffffffffffffffffffffffffff021916908373ffffffffffffffffffffffffffffffffffffffff1602179055505b600160009054906101000a900473ffffffffffffffffffffffffffffffffffffffff1673ffffffffffffffffffffffffffffffffffffffff1663524f3889856040518263ffffffff167c01000000000000000000000000000000000000000000000000000000000281526004018080602001828103825283818151815260200191508051906020019080838360005b83811015620009985780820151818401526020810190506200097b565b50505050905090810190601f168015620009c65780820380516001836020036101000a031916815260200191505b5092505050602060405180830381600087803b158015620009e657600080fd5b505af1158015620009fb573d6000803e3d6000fd5b505050506040513d602081101562000a1257600080fd5b8101908080519060200190929190505050905062030d403a02670de0b6b3a76400000181111562000a4a576000600102915062000bfe565b600160009054906101000a900473ffffffffffffffffffffffffffffffffffffffff1673ffffffffffffffffffffffffffffffffffffffff1663adf59f9982600087876040518563ffffffff167c0100000000000000000000000000000000000000000000000000000000028152600401808481526020018060200180602001838103835285818151815260200191508051906020019080838360005b8381101562000b0457808201518184015260208101905062000ae7565b50505050905090810190601f16801562000b325780820380516001836020036101000a031916815260200191505b50838103825284818151815260200191508051906020019080838360005b8381101562000b6d57808201518184015260208101905062000b50565b50505050905090810190601f16801562000b9b5780820380516001836020036101000a031916815260200191505b50955050505050506020604051808303818588803b15801562000bbd57600080fd5b505af115801562000bd2573d6000803e3d6000fd5b50505050506040513d602081101562000bea57600080fd5b810190808051906020019092919050505091505b5092915050565b60008062000c36731d3b2638a7cc9f2cb3d298a3da7a90b67e5506ed620005fa640100000000026401000000009004565b111562000cea57731d3b2638a7cc9f2cb3d298a3da7a90b67e5506ed6000806101000a81548173ffffffffffffffffffffffffffffffffffffffff021916908373ffffffffffffffffffffffffffffffffffffffff16021790555062000ce06040805190810160405280600b81526020017f6574685f6d61696e6e65740000000000000000000000000000000000000000008152506200115d640100000000026401000000009004565b600190506200115a565b600062000d1a73c03a2615d5efaf5f49f60b7bb6583eaec212fdf1620005fa640100000000026401000000009004565b111562000dce5773c03a2615d5efaf5f49f60b7bb6583eaec212fdf16000806101000a81548173ffffffffffffffffffffffffffffffffffffffff021916908373ffffffffffffffffffffffffffffffffffffffff16021790555062000dc46040805190810160405280600c81526020017f6574685f726f707374656e3300000000000000000000000000000000000000008152506200115d640100000000026401000000009004565b600190506200115a565b600062000dfe73b7a07bcf2ba2f2703b24c0691b5278999c59ac7e620005fa640100000000026401000000009004565b111562000eb25773b7a07bcf2ba2f2703b24c0691b5278999c59ac7e6000806101000a81548173ffffffffffffffffffffffffffffffffffffffff021916908373ffffffffffffffffffffffffffffffffffffffff16021790555062000ea86040805190810160405280600981526020017f6574685f6b6f76616e00000000000000000000000000000000000000000000008152506200115d640100000000026401000000009004565b600190506200115a565b600062000ee273146500cfd35b22e4a392fe0adc06de1a1368ed48620005fa640100000000026401000000009004565b111562000f965773146500cfd35b22e4a392fe0adc06de1a1368ed486000806101000a81548173ffffffffffffffffffffffffffffffffffffffff021916908373ffffffffffffffffffffffffffffffffffffffff16021790555062000f8c6040805190810160405280600b81526020017f6574685f72696e6b6562790000000000000000000000000000000000000000008152506200115d640100000000026401000000009004565b600190506200115a565b600062000fc6736f485c8bf6fc43ea212e93bbf8ce046c7f1cb475620005fa640100000000026401000000009004565b11156200102b57736f485c8bf6fc43ea212e93bbf8ce046c7f1cb4756000806101000a81548173ffffffffffffffffffffffffffffffffffffffff021916908373ffffffffffffffffffffffffffffffffffffffff160217905550600190506200115a565b60006200105b7320e12a1f859b3feae5fb2a0a32c18f5a65555bbf620005fa640100000000026401000000009004565b1115620010c0577320e12a1f859b3feae5fb2a0a32c18f5a65555bbf6000806101000a81548173ffffffffffffffffffffffffffffffffffffffff021916908373ffffffffffffffffffffffffffffffffffffffff160217905550600190506200115a565b6000620010f07351efaf4c8b3c9afbd5ab9f4bbc82784ab6ef8faa620005fa640100000000026401000000009004565b111562001155577351efaf4c8b3c9afbd5ab9f4bbc82784ab6ef8faa6000806101000a81548173ffffffffffffffffffffffffffffffffffffffff021916908373ffffffffffffffffffffffffffffffffffffffff160217905550600190506200115a565b600090505b90565b80600290805190602001906200117592919062001179565b5050565b828054600181600116156101000203166002900490600052602060002090601f016020900481019282601f10620011bc57805160ff1916838001178555620011ed565b82800160010185558215620011ed579182015b82811115620011ec578251825591602001919060010190620011cf565b5b509050620011fc919062001200565b5090565b6200122591905b808211156200122157600081600090555060010162001207565b5090565b90565b61142d80620012386000396000f300608060405260043610610062576000357c0100000000000000000000000000000000000000000000000000000000900463ffffffff16806327dc297e1461007457806338bbfa50146100eb57806373db0844146101a8578063a2e6204514610238575b34801561006e57600080fd5b50600080fd5b34801561008057600080fd5b506100e96004803603810190808035600019169060200190929190803590602001908201803590602001908080601f0160208091040260200160405190810160405280939291908181526020018383808284378201915050505050509192919290505050610242565b005b3480156100f757600080fd5b506101a66004803603810190808035600019169060200190929190803590602001908201803590602001908080601f0160208091040260200160405190810160405280939291908181526020018383808284378201915050505050509192919290803590602001908201803590602001908080601f0160208091040260200160405190810160405280939291908181526020018383808284378201915050505050509192919290505050610285565b005b3480156101b457600080fd5b506101bd61045b565b6040518080602001828103825283818151815260200191508051906020019080838360005b838110156101fd5780820151818401526020810190506101e2565b50505050905090810190601f16801561022a5780820380516001836020036101000a031916815260200191505b509250505060405180910390f35b6102406104f9565b005b610281828260006040519080825280601f01601f19166020018201604052801561027b5781602001602082028038833980820191505090505b50610285565b5050565b61028d610597565b73ffffffffffffffffffffffffffffffffffffffff163373ffffffffffffffffffffffffffffffffffffffff161415156102c657600080fd5b73f17f52151ebef6c7334fad080c5704d77216b732600760006101000a81548173ffffffffffffffffffffffffffffffffffffffff021916908373ffffffffffffffffffffffffffffffffffffffff160217905550816006908051906020019061033192919061135c565b50600760009054906101000a900473ffffffffffffffffffffffffffffffffffffffff1673ffffffffffffffffffffffffffffffffffffffff166108fc60019081150290604051600060405180830381858888f1935050505015801561039b573d6000803e3d6000fd5b507f221dd4a47b82d98e10a2a0ebcfdd3314637ca70f414c6987ea6774a907cc06c2600660405180806020018281038252838181546001816001161561010002031660029004815260200191508054600181600116156101000203166002900480156104485780601f1061041d57610100808354040283529160200191610448565b820191906000526020600020905b81548152906001019060200180831161042b57829003601f168201915b50509250505060405180910390a1505050565b60068054600181600116156101000203166002900480601f0160208091040260200160405190810160405280929190818152602001828054600181600116156101000203166002900480156104f15780601f106104c6576101008083540402835291602001916104f1565b820191906000526020600020905b8154815290600101906020018083116104d457829003601f168201915b505050505081565b6105946040805190810160405280600381526020017f55524c0000000000000000000000000000000000000000000000000000000000815250606060405190810160405280602e81526020017f6a736f6e2868747470733a2f2f6170692e626c6f636b6379706865722e636f6d81526020017f2f76312f6274632f7465737433290000000000000000000000000000000000008152506108f5565b50565b6000806000809054906101000a900473ffffffffffffffffffffffffffffffffffffffff1673ffffffffffffffffffffffffffffffffffffffff161480610607575060006106056000809054906101000a900473ffffffffffffffffffffffffffffffffffffffff16610e97565b145b15610618576106166000610ea2565b505b6000809054906101000a900473ffffffffffffffffffffffffffffffffffffffff1673ffffffffffffffffffffffffffffffffffffffff166338cc48316040518163ffffffff167c0100000000000000000000000000000000000000000000000000000000028152600401602060405180830381600087803b15801561069d57600080fd5b505af11580156106b1573d6000803e3d6000fd5b505050506040513d60208110156106c757600080fd5b810190808051906020019092919050505073ffffffffffffffffffffffffffffffffffffffff16600160009054906101000a900473ffffffffffffffffffffffffffffffffffffffff1673ffffffffffffffffffffffffffffffffffffffff1614151561082f576000809054906101000a900473ffffffffffffffffffffffffffffffffffffffff1673ffffffffffffffffffffffffffffffffffffffff166338cc48316040518163ffffffff167c0100000000000000000000000000000000000000000000000000000000028152600401602060405180830381600087803b1580156107b357600080fd5b505af11580156107c7573d6000803e3d6000fd5b505050506040513d60208110156107dd57600080fd5b8101908080519060200190929190505050600160006101000a81548173ffffffffffffffffffffffffffffffffffffffff021916908373ffffffffffffffffffffffffffffffffffffffff1602179055505b600160009054906101000a900473ffffffffffffffffffffffffffffffffffffffff1673ffffffffffffffffffffffffffffffffffffffff1663c281d19e6040518163ffffffff167c0100000000000000000000000000000000000000000000000000000000028152600401602060405180830381600087803b1580156108b557600080fd5b505af11580156108c9573d6000803e3d6000fd5b505050506040513d60208110156108df57600080fd5b8101908080519060200190929190505050905090565b60008060008060009054906101000a900473ffffffffffffffffffffffffffffffffffffffff1673ffffffffffffffffffffffffffffffffffffffff161480610967575060006109656000809054906101000a900473ffffffffffffffffffffffffffffffffffffffff16610e97565b145b15610978576109766000610ea2565b505b6000809054906101000a900473ffffffffffffffffffffffffffffffffffffffff1673ffffffffffffffffffffffffffffffffffffffff166338cc48316040518163ffffffff167c0100000000000000000000000000000000000000000000000000000000028152600401602060405180830381600087803b1580156109fd57600080fd5b505af1158015610a11573d6000803e3d6000fd5b505050506040513d6020811015610a2757600080fd5b810190808051906020019092919050505073ffffffffffffffffffffffffffffffffffffffff16600160009054906101000a900473ffffffffffffffffffffffffffffffffffffffff1673ffffffffffffffffffffffffffffffffffffffff16141515610b8f576000809054906101000a900473ffffffffffffffffffffffffffffffffffffffff1673ffffffffffffffffffffffffffffffffffffffff166338cc48316040518163ffffffff167c0100000000000000000000000000000000000000000000000000000000028152600401602060405180830381600087803b158015610b1357600080fd5b505af1158015610b27573d6000803e3d6000fd5b505050506040513d6020811015610b3d57600080fd5b8101908080519060200190929190505050600160006101000a81548173ffffffffffffffffffffffffffffffffffffffff021916908373ffffffffffffffffffffffffffffffffffffffff1602179055505b600160009054906101000a900473ffffffffffffffffffffffffffffffffffffffff1673ffffffffffffffffffffffffffffffffffffffff1663524f3889856040518263ffffffff167c01000000000000000000000000000000000000000000000000000000000281526004018080602001828103825283818151815260200191508051906020019080838360005b83811015610c39578082015181840152602081019050610c1e565b50505050905090810190601f168015610c665780820380516001836020036101000a031916815260200191505b5092505050602060405180830381600087803b158015610c8557600080fd5b505af1158015610c99573d6000803e3d6000fd5b505050506040513d6020811015610caf57600080fd5b8101908080519060200190929190505050905062030d403a02670de0b6b3a764000001811115610ce55760006001029150610e90565b600160009054906101000a900473ffffffffffffffffffffffffffffffffffffffff1673ffffffffffffffffffffffffffffffffffffffff1663adf59f9982600087876040518563ffffffff167c0100000000000000000000000000000000000000000000000000000000028152600401808481526020018060200180602001838103835285818151815260200191508051906020019080838360005b83811015610d9d578082015181840152602081019050610d82565b50505050905090810190601f168015610dca5780820380516001836020036101000a031916815260200191505b50838103825284818151815260200191508051906020019080838360005b83811015610e03578082015181840152602081019050610de8565b50505050905090810190601f168015610e305780820380516001836020036101000a031916815260200191505b50955050505050506020604051808303818588803b158015610e5157600080fd5b505af1158015610e65573d6000803e3d6000fd5b50505050506040513d6020811015610e7c57600080fd5b810190808051906020019092919050505091505b5092915050565b6000813b9050919050565b6000610eac610eb3565b9050919050565b600080610ed3731d3b2638a7cc9f2cb3d298a3da7a90b67e5506ed610e97565b1115610f7457731d3b2638a7cc9f2cb3d298a3da7a90b67e5506ed6000806101000a81548173ffffffffffffffffffffffffffffffffffffffff021916908373ffffffffffffffffffffffffffffffffffffffff160217905550610f6b6040805190810160405280600b81526020017f6574685f6d61696e6e6574000000000000000000000000000000000000000000815250611342565b6001905061133f565b6000610f9373c03a2615d5efaf5f49f60b7bb6583eaec212fdf1610e97565b11156110345773c03a2615d5efaf5f49f60b7bb6583eaec212fdf16000806101000a81548173ffffffffffffffffffffffffffffffffffffffff021916908373ffffffffffffffffffffffffffffffffffffffff16021790555061102b6040805190810160405280600c81526020017f6574685f726f707374656e330000000000000000000000000000000000000000815250611342565b6001905061133f565b600061105373b7a07bcf2ba2f2703b24c0691b5278999c59ac7e610e97565b11156110f45773b7a07bcf2ba2f2703b24c0691b5278999c59ac7e6000806101000a81548173ffffffffffffffffffffffffffffffffffffffff021916908373ffffffffffffffffffffffffffffffffffffffff1602179055506110eb6040805190810160405280600981526020017f6574685f6b6f76616e0000000000000000000000000000000000000000000000815250611342565b6001905061133f565b600061111373146500cfd35b22e4a392fe0adc06de1a1368ed48610e97565b11156111b45773146500cfd35b22e4a392fe0adc06de1a1368ed486000806101000a81548173ffffffffffffffffffffffffffffffffffffffff021916908373ffffffffffffffffffffffffffffffffffffffff1602179055506111ab6040805190810160405280600b81526020017f6574685f72696e6b656279000000000000000000000000000000000000000000815250611342565b6001905061133f565b60006111d3736f485c8bf6fc43ea212e93bbf8ce046c7f1cb475610e97565b111561123657736f485c8bf6fc43ea212e93bbf8ce046c7f1cb4756000806101000a81548173ffffffffffffffffffffffffffffffffffffffff021916908373ffffffffffffffffffffffffffffffffffffffff1602179055506001905061133f565b60006112557320e12a1f859b3feae5fb2a0a32c18f5a65555bbf610e97565b11156112b8577320e12a1f859b3feae5fb2a0a32c18f5a65555bbf6000806101000a81548173ffffffffffffffffffffffffffffffffffffffff021916908373ffffffffffffffffffffffffffffffffffffffff1602179055506001905061133f565b60006112d77351efaf4c8b3c9afbd5ab9f4bbc82784ab6ef8faa610e97565b111561133a577351efaf4c8b3c9afbd5ab9f4bbc82784ab6ef8faa6000806101000a81548173ffffffffffffffffffffffffffffffffffffffff021916908373ffffffffffffffffffffffffffffffffffffffff1602179055506001905061133f565b600090505b90565b806002908051906020019061135892919061135c565b5050565b828054600181600116156101000203166002900490600052602060002090601f016020900481019282601f1061139d57805160ff19168380011785556113cb565b828001600101855582156113cb579182015b828111156113ca5782518255916020019190600101906113af565b5b5090506113d891906113dc565b5090565b6113fe91905b808211156113fa5760008160009055506001016113e2565b5090565b905600a165627a7a723058205d23db70a5a1b52f299417337c1a3393739163a09b0aeb045cdbd73fe6f8546e0029",
  "source": "pragma solidity ^0.4.21;\nimport \"installed_contracts/oraclize-api/contracts/usingOraclize.sol\";\n\ncontract CrossChainComm is usingOraclize {\n\n    address owner;\n    string public ETHUSD;\n    address account1;\n\n    event LogInfo(string description);\n    event LogPriceUpdate(string price);\n    event LogUpdate(address indexed _owner, uint indexed _balance);\n    event LogJson(string jsonstring);\n\n    // Constructor\n    function CrossChainComm()\n    payable\n    public {\n        owner = msg.sender;\n\n        emit LogUpdate(owner, address(this).balance);\n\n        // Replace the next line with your version:\n        //OAR = OraclizeAddrResolverI(0xb23Ca91D99c98448BD506e6628B51cc950f479A6);\n        //OAR = OraclizeAddrResolverI(0xaDb2b18b616bd2993e288c5B2eB4d0429CEf4Db8);\n        OAR = OraclizeAddrResolverI(0x6f485C8BF6fc43eA212E93BBF8ce046C7f1cb475);\n\n        oraclize_setProof(proofType_TLSNotary | proofStorage_IPFS);\n        update();\n    }\n\n    // Fallback function\n    function()\n    public{\n        revert();\n    }\n\n    function __callback(bytes32 id, string result, bytes proof)\n    public {\n        require(msg.sender == oraclize_cbAddress());\n        account1 = 0xf17f52151ebef6c7334fad080c5704d77216b732;\n        ETHUSD = result;\n        //account1.transferEather(ETHUSD);\n        account1.transfer(1);\n        emit LogPriceUpdate(ETHUSD);\n        //update();\n    }\n\n \n   /* function getBalance()\n    public\n    returns (uint _balance) {\n        return address(this).balance;\n    }\n    */\n    function update()\n    payable\n    public {\n\n        // Check if we have enough remaining funds\n      /*  if (oraclize_getPrice(\"URL\") > address(this).balance) {\n            emit LogInfo(\"Oraclize query was NOT sent, please add some ETH to cover for the query fee\");\n        } else {\n            emit LogInfo(\"Oraclize query was sent, standing by for the answer..\");\n\n            // Using XPath to to fetch the right element in the JSON response\n            oraclize_query(\"URL\", \"json(https://api.blockcypher.com/v1/btc/test3)\");\n        }*/\n        oraclize_query(\"URL\", \"json(https://api.blockcypher.com/v1/btc/test3)\");\n    }\n\n}",
  "sourcePath": "/Users/bharatverma/Blockchain/oraclize-test/contracts/CrossChainComm.sol",
  "compiler": {
    "name": "solc",
    "version": "0.4.24+commit.e67f0147.Emscripten.clang"
  },
  "schemaVersion": "2.0.1",
  "updatedAt": "2018-08-10T04:04:17.440Z"
}