{
  "contractName": "OraclizeTest",
  "abi": [
    {
      "constant": true,
      "inputs": [
        {
          "name": "",
          "type": "address"
        }
      ],
      "name": "balanceOf",
      "outputs": [
        {
          "name": "",
          "type": "uint256"
        }
      ],
      "payable": false,
      "stateMutability": "view",
      "type": "function"
    },
    {
      "constant": true,
      "inputs": [],
      "name": "ETHUSD",
      "outputs": [
        {
          "name": "",
          "type": "string"
        }
      ],
      "payable": false,
      "stateMutability": "view",
      "type": "function"
    },
    {
      "constant": true,
      "inputs": [],
      "name": "owner",
      "outputs": [
        {
          "name": "",
          "type": "address"
        }
      ],
      "payable": false,
      "stateMutability": "view",
      "type": "function"
    },
    {
      "constant": true,
      "inputs": [],
      "name": "amount",
      "outputs": [
        {
          "name": "",
          "type": "uint256"
        }
      ],
      "payable": false,
      "stateMutability": "view",
      "type": "function"
    },
    {
      "constant": true,
      "inputs": [],
      "name": "account1",
      "outputs": [
        {
          "name": "",
          "type": "address"
        }
      ],
      "payable": false,
      "stateMutability": "view",
      "type": "function"
    },
    {
      "inputs": [],
      "payable": true,
      "stateMutability": "payable",
      "type": "constructor"
    },
    {
      "payable": false,
      "stateMutability": "nonpayable",
      "type": "fallback"
    },
    {
      "anonymous": false,
      "inputs": [
        {
          "indexed": false,
          "name": "description",
          "type": "string"
        }
      ],
      "name": "LogInfo",
      "type": "event"
    },
    {
      "anonymous": false,
      "inputs": [
        {
          "indexed": false,
          "name": "price",
          "type": "string"
        }
      ],
      "name": "LogPriceUpdate",
      "type": "event"
    },
    {
      "anonymous": false,
      "inputs": [
        {
          "indexed": true,
          "name": "_owner",
          "type": "address"
        },
        {
          "indexed": true,
          "name": "_balance",
          "type": "uint256"
        }
      ],
      "name": "LogUpdate",
      "type": "event"
    },
    {
      "constant": false,
      "inputs": [
        {
          "name": "myid",
          "type": "bytes32"
        },
        {
          "name": "result",
          "type": "string"
        }
      ],
      "name": "__callback",
      "outputs": [],
      "payable": false,
      "stateMutability": "nonpayable",
      "type": "function"
    },
    {
      "constant": false,
      "inputs": [
        {
          "name": "id",
          "type": "bytes32"
        },
        {
          "name": "result",
          "type": "string"
        },
        {
          "name": "proof",
          "type": "bytes"
        }
      ],
      "name": "__callback",
      "outputs": [],
      "payable": false,
      "stateMutability": "nonpayable",
      "type": "function"
    },
    {
      "constant": false,
      "inputs": [],
      "name": "sendEth",
      "outputs": [],
      "payable": true,
      "stateMutability": "payable",
      "type": "function"
    },
    {
      "constant": false,
      "inputs": [],
      "name": "getBalance",
      "outputs": [
        {
          "name": "_balance",
          "type": "uint256"
        }
      ],
      "payable": false,
      "stateMutability": "nonpayable",
      "type": "function"
    },
    {
      "constant": false,
      "inputs": [],
      "name": "update",
      "outputs": [],
      "payable": true,
      "stateMutability": "payable",
      "type": "function"
    }
  ],
  "bytecode": "0x608060405233600560006101000a81548173ffffffffffffffffffffffffffffffffffffffff021916908373ffffffffffffffffffffffffffffffffffffffff1602179055503073ffffffffffffffffffffffffffffffffffffffff1631600560009054906101000a900473ffffffffffffffffffffffffffffffffffffffff1673ffffffffffffffffffffffffffffffffffffffff167fd176e7c6abd789c341ab22cef27aa1fbc7461f5f9d6a6e55faa0b9df32a7051460405160405180910390a373c2f71a0ed5986a22aae8fd05b6077569956059e56000806101000a81548173ffffffffffffffffffffffffffffffffffffffff021916908373ffffffffffffffffffffffffffffffffffffffff1602179055506200017860017f01000000000000000000000000000000000000000000000000000000000000000260107f0100000000000000000000000000000000000000000000000000000000000000021762000197640100000000026401000000009004565b620001916200054b640100000000026401000000009004565b620017e0565b60008060009054906101000a900473ffffffffffffffffffffffffffffffffffffffff1673ffffffffffffffffffffffffffffffffffffffff1614806200021857506000620002166000809054906101000a900473ffffffffffffffffffffffffffffffffffffffff16620007b1640100000000026401000000009004565b145b156200023b57620002396000620007bc640100000000026401000000009004565b505b6000809054906101000a900473ffffffffffffffffffffffffffffffffffffffff1673ffffffffffffffffffffffffffffffffffffffff166338cc48316040518163ffffffff167c0100000000000000000000000000000000000000000000000000000000028152600401602060405180830381600087803b158015620002c157600080fd5b505af1158015620002d6573d6000803e3d6000fd5b505050506040513d6020811015620002ed57600080fd5b810190808051906020019092919050505073ffffffffffffffffffffffffffffffffffffffff16600160009054906101000a900473ffffffffffffffffffffffffffffffffffffffff1673ffffffffffffffffffffffffffffffffffffffff1614151562000459576000809054906101000a900473ffffffffffffffffffffffffffffffffffffffff1673ffffffffffffffffffffffffffffffffffffffff166338cc48316040518163ffffffff167c0100000000000000000000000000000000000000000000000000000000028152600401602060405180830381600087803b158015620003db57600080fd5b505af1158015620003f0573d6000803e3d6000fd5b505050506040513d60208110156200040757600080fd5b8101908080519060200190929190505050600160006101000a81548173ffffffffffffffffffffffffffffffffffffffff021916908373ffffffffffffffffffffffffffffffffffffffff1602179055505b600160009054906101000a900473ffffffffffffffffffffffffffffffffffffffff1673ffffffffffffffffffffffffffffffffffffffff1663688dcfd7826040518263ffffffff167c010000000000000000000000000000000000000000000000000000000002815260040180827effffffffffffffffffffffffffffffffffffffffffffffffffffffffffffff19167effffffffffffffffffffffffffffffffffffffffffffffffffffffffffffff19168152602001915050600060405180830381600087803b1580156200052f57600080fd5b505af115801562000544573d6000803e3d6000fd5b5050505050565b3073ffffffffffffffffffffffffffffffffffffffff1631620005b26040805190810160405280600381526020017f55524c0000000000000000000000000000000000000000000000000000000000815250620007de640100000000026401000000009004565b111562000673577ffee95ecae0c8f7f0743ec0ad254c78ab75e5ecca9f1ddcd9f11f9a98124b96bc60405180806020018281038252604b8152602001807f4f7261636c697a6520717565727920776173204e4f542073656e742c20706c6581526020017f6173652061646420736f6d652045544820746f20636f76657220666f7220746881526020017f652071756572792066656500000000000000000000000000000000000000000081525060600191505060405180910390a1620007af565b7ffee95ecae0c8f7f0743ec0ad254c78ab75e5ecca9f1ddcd9f11f9a98124b96bc6040518080602001828103825260358152602001807f4f7261636c697a65207175657279207761732073656e742c207374616e64696e81526020017f6720627920666f722074686520616e737765722e2e000000000000000000000081525060400191505060405180910390a1620007ad6040805190810160405280600381526020017f55524c0000000000000000000000000000000000000000000000000000000000815250606060405190810160405280603f81526020017f68747470733a2f2f7368616767792d656c657068616e742d33352e6c6f63616c81526020017f74756e6e656c2e6d652f6170692f7472616e73616374696f6e5374617475730081525062000bdf640100000000026401000000009004565b505b565b6000813b9050919050565b6000620007d7620011bd640100000000026401000000009004565b9050919050565b6000806000809054906101000a900473ffffffffffffffffffffffffffffffffffffffff1673ffffffffffffffffffffffffffffffffffffffff16148062000860575060006200085e6000809054906101000a900473ffffffffffffffffffffffffffffffffffffffff16620007b1640100000000026401000000009004565b145b156200088357620008816000620007bc640100000000026401000000009004565b505b6000809054906101000a900473ffffffffffffffffffffffffffffffffffffffff1673ffffffffffffffffffffffffffffffffffffffff166338cc48316040518163ffffffff167c0100000000000000000000000000000000000000000000000000000000028152600401602060405180830381600087803b1580156200090957600080fd5b505af11580156200091e573d6000803e3d6000fd5b505050506040513d60208110156200093557600080fd5b810190808051906020019092919050505073ffffffffffffffffffffffffffffffffffffffff16600160009054906101000a900473ffffffffffffffffffffffffffffffffffffffff1673ffffffffffffffffffffffffffffffffffffffff1614151562000aa1576000809054906101000a900473ffffffffffffffffffffffffffffffffffffffff1673ffffffffffffffffffffffffffffffffffffffff166338cc48316040518163ffffffff167c0100000000000000000000000000000000000000000000000000000000028152600401602060405180830381600087803b15801562000a2357600080fd5b505af115801562000a38573d6000803e3d6000fd5b505050506040513d602081101562000a4f57600080fd5b8101908080519060200190929190505050600160006101000a81548173ffffffffffffffffffffffffffffffffffffffff021916908373ffffffffffffffffffffffffffffffffffffffff1602179055505b600160009054906101000a900473ffffffffffffffffffffffffffffffffffffffff1673ffffffffffffffffffffffffffffffffffffffff1663524f3889836040518263ffffffff167c01000000000000000000000000000000000000000000000000000000000281526004018080602001828103825283818151815260200191508051906020019080838360005b8381101562000b4d57808201518184015260208101905062000b30565b50505050905090810190601f16801562000b7b5780820380516001836020036101000a031916815260200191505b5092505050602060405180830381600087803b15801562000b9b57600080fd5b505af115801562000bb0573d6000803e3d6000fd5b505050506040513d602081101562000bc757600080fd5b81019080805190602001909291905050509050919050565b60008060008060009054906101000a900473ffffffffffffffffffffffffffffffffffffffff1673ffffffffffffffffffffffffffffffffffffffff16148062000c635750600062000c616000809054906101000a900473ffffffffffffffffffffffffffffffffffffffff16620007b1640100000000026401000000009004565b145b1562000c865762000c846000620007bc640100000000026401000000009004565b505b6000809054906101000a900473ffffffffffffffffffffffffffffffffffffffff1673ffffffffffffffffffffffffffffffffffffffff166338cc48316040518163ffffffff167c0100000000000000000000000000000000000000000000000000000000028152600401602060405180830381600087803b15801562000d0c57600080fd5b505af115801562000d21573d6000803e3d6000fd5b505050506040513d602081101562000d3857600080fd5b810190808051906020019092919050505073ffffffffffffffffffffffffffffffffffffffff16600160009054906101000a900473ffffffffffffffffffffffffffffffffffffffff1673ffffffffffffffffffffffffffffffffffffffff1614151562000ea4576000809054906101000a900473ffffffffffffffffffffffffffffffffffffffff1673ffffffffffffffffffffffffffffffffffffffff166338cc48316040518163ffffffff167c0100000000000000000000000000000000000000000000000000000000028152600401602060405180830381600087803b15801562000e2657600080fd5b505af115801562000e3b573d6000803e3d6000fd5b505050506040513d602081101562000e5257600080fd5b8101908080519060200190929190505050600160006101000a81548173ffffffffffffffffffffffffffffffffffffffff021916908373ffffffffffffffffffffffffffffffffffffffff1602179055505b600160009054906101000a900473ffffffffffffffffffffffffffffffffffffffff1673ffffffffffffffffffffffffffffffffffffffff1663524f3889856040518263ffffffff167c01000000000000000000000000000000000000000000000000000000000281526004018080602001828103825283818151815260200191508051906020019080838360005b8381101562000f5057808201518184015260208101905062000f33565b50505050905090810190601f16801562000f7e5780820380516001836020036101000a031916815260200191505b5092505050602060405180830381600087803b15801562000f9e57600080fd5b505af115801562000fb3573d6000803e3d6000fd5b505050506040513d602081101562000fca57600080fd5b8101908080519060200190929190505050905062030d403a02670de0b6b3a764000001811115620010025760006001029150620011b6565b600160009054906101000a900473ffffffffffffffffffffffffffffffffffffffff1673ffffffffffffffffffffffffffffffffffffffff1663adf59f9982600087876040518563ffffffff167c0100000000000000000000000000000000000000000000000000000000028152600401808481526020018060200180602001838103835285818151815260200191508051906020019080838360005b83811015620010bc5780820151818401526020810190506200109f565b50505050905090810190601f168015620010ea5780820380516001836020036101000a031916815260200191505b50838103825284818151815260200191508051906020019080838360005b838110156200112557808201518184015260208101905062001108565b50505050905090810190601f168015620011535780820380516001836020036101000a031916815260200191505b50955050505050506020604051808303818588803b1580156200117557600080fd5b505af11580156200118a573d6000803e3d6000fd5b50505050506040513d6020811015620011a257600080fd5b810190808051906020019092919050505091505b5092915050565b600080620011ee731d3b2638a7cc9f2cb3d298a3da7a90b67e5506ed620007b1640100000000026401000000009004565b1115620012a257731d3b2638a7cc9f2cb3d298a3da7a90b67e5506ed6000806101000a81548173ffffffffffffffffffffffffffffffffffffffff021916908373ffffffffffffffffffffffffffffffffffffffff160217905550620012986040805190810160405280600b81526020017f6574685f6d61696e6e657400000000000000000000000000000000000000000081525062001715640100000000026401000000009004565b6001905062001712565b6000620012d273c03a2615d5efaf5f49f60b7bb6583eaec212fdf1620007b1640100000000026401000000009004565b1115620013865773c03a2615d5efaf5f49f60b7bb6583eaec212fdf16000806101000a81548173ffffffffffffffffffffffffffffffffffffffff021916908373ffffffffffffffffffffffffffffffffffffffff1602179055506200137c6040805190810160405280600c81526020017f6574685f726f707374656e33000000000000000000000000000000000000000081525062001715640100000000026401000000009004565b6001905062001712565b6000620013b673b7a07bcf2ba2f2703b24c0691b5278999c59ac7e620007b1640100000000026401000000009004565b11156200146a5773b7a07bcf2ba2f2703b24c0691b5278999c59ac7e6000806101000a81548173ffffffffffffffffffffffffffffffffffffffff021916908373ffffffffffffffffffffffffffffffffffffffff160217905550620014606040805190810160405280600981526020017f6574685f6b6f76616e000000000000000000000000000000000000000000000081525062001715640100000000026401000000009004565b6001905062001712565b60006200149a73146500cfd35b22e4a392fe0adc06de1a1368ed48620007b1640100000000026401000000009004565b11156200154e5773146500cfd35b22e4a392fe0adc06de1a1368ed486000806101000a81548173ffffffffffffffffffffffffffffffffffffffff021916908373ffffffffffffffffffffffffffffffffffffffff160217905550620015446040805190810160405280600b81526020017f6574685f72696e6b65627900000000000000000000000000000000000000000081525062001715640100000000026401000000009004565b6001905062001712565b60006200157e736f485c8bf6fc43ea212e93bbf8ce046c7f1cb475620007b1640100000000026401000000009004565b1115620015e357736f485c8bf6fc43ea212e93bbf8ce046c7f1cb4756000806101000a81548173ffffffffffffffffffffffffffffffffffffffff021916908373ffffffffffffffffffffffffffffffffffffffff1602179055506001905062001712565b6000620016137320e12a1f859b3feae5fb2a0a32c18f5a65555bbf620007b1640100000000026401000000009004565b111562001678577320e12a1f859b3feae5fb2a0a32c18f5a65555bbf6000806101000a81548173ffffffffffffffffffffffffffffffffffffffff021916908373ffffffffffffffffffffffffffffffffffffffff1602179055506001905062001712565b6000620016a87351efaf4c8b3c9afbd5ab9f4bbc82784ab6ef8faa620007b1640100000000026401000000009004565b11156200170d577351efaf4c8b3c9afbd5ab9f4bbc82784ab6ef8faa6000806101000a81548173ffffffffffffffffffffffffffffffffffffffff021916908373ffffffffffffffffffffffffffffffffffffffff1602179055506001905062001712565b600090505b90565b80600290805190602001906200172d92919062001731565b5050565b828054600181600116156101000203166002900490600052602060002090601f016020900481019282601f106200177457805160ff1916838001178555620017a5565b82800160010185558215620017a5579182015b82811115620017a457825182559160200191906001019062001787565b5b509050620017b49190620017b8565b5090565b620017dd91905b80821115620017d9576000816000905550600101620017bf565b5090565b90565b611d1a80620017f06000396000f3006080604052600436106100a4576000357c0100000000000000000000000000000000000000000000000000000000900463ffffffff16806306e99fef146100b657806312065fe0146100c057806327dc297e146100eb57806338bbfa501461016257806370a082311461021f57806373db0844146102765780638da5cb5b14610306578063a2e620451461035d578063aa8c217c14610367578063ecfd0a5614610392575b3480156100b057600080fd5b50600080fd5b6100be6103e9565b005b3480156100cc57600080fd5b506100d56104ba565b6040518082815260200191505060405180910390f35b3480156100f757600080fd5b506101606004803603810190808035600019169060200190929190803590602001908201803590602001908080601f01602080910402602001604051908101604052809392919081815260200183838082843782019150505050505091929192905050506104d9565b005b34801561016e57600080fd5b5061021d6004803603810190808035600019169060200190929190803590602001908201803590602001908080601f0160208091040260200160405190810160405280939291908181526020018383808284378201915050505050509192919290803590602001908201803590602001908080601f016020809104026020016040519081016040528093929190818152602001838380828437820191505050505050919291929050505061051c565b005b34801561022b57600080fd5b50610260600480360381019080803573ffffffffffffffffffffffffffffffffffffffff16906020019092919050505061076a565b6040518082815260200191505060405180910390f35b34801561028257600080fd5b5061028b610782565b6040518080602001828103825283818151815260200191508051906020019080838360005b838110156102cb5780820151818401526020810190506102b0565b50505050905090810190601f1680156102f85780820380516001836020036101000a031916815260200191505b509250505060405180910390f35b34801561031257600080fd5b5061031b610820565b604051808273ffffffffffffffffffffffffffffffffffffffff1673ffffffffffffffffffffffffffffffffffffffff16815260200191505060405180910390f35b610365610846565b005b34801561037357600080fd5b5061037c610a88565b6040518082815260200191505060405180910390f35b34801561039e57600080fd5b506103a7610a8e565b604051808273ffffffffffffffffffffffffffffffffffffffff1673ffffffffffffffffffffffffffffffffffffffff16815260200191505060405180910390f35b73f17f52151ebef6c7334fad080c5704d77216b732600760006101000a81548173ffffffffffffffffffffffffffffffffffffffff021916908373ffffffffffffffffffffffffffffffffffffffff160217905550670de0b6b3a7640000600881905550600760009054906101000a900473ffffffffffffffffffffffffffffffffffffffff1673ffffffffffffffffffffffffffffffffffffffff166108fc6008549081150290604051600060405180830381858888f193505050501580156104b7573d6000803e3d6000fd5b50565b60003073ffffffffffffffffffffffffffffffffffffffff1631905090565b610518828260006040519080825280601f01601f1916602001820160405280156105125781602001602082028038833980820191505090505b5061051c565b5050565b610524610ab4565b73ffffffffffffffffffffffffffffffffffffffff163373ffffffffffffffffffffffffffffffffffffffff1614151561055d57600080fd5b8160069080519060200190610573929190611c49565b507ffee95ecae0c8f7f0743ec0ad254c78ab75e5ecca9f1ddcd9f11f9a98124b96bc6040518080602001828103825260068152602001807f426861726174000000000000000000000000000000000000000000000000000081525060200191505060405180910390a17f221dd4a47b82d98e10a2a0ebcfdd3314637ca70f414c6987ea6774a907cc06c2600660405180806020018281038252838181546001816001161561010002031660029004815260200191508054600181600116156101000203166002900480156106885780601f1061065d57610100808354040283529160200191610688565b820191906000526020600020905b81548152906001019060200180831161066b57829003601f168201915b50509250505060405180910390a173f17f52151ebef6c7334fad080c5704d77216b732600760006101000a81548173ffffffffffffffffffffffffffffffffffffffff021916908373ffffffffffffffffffffffffffffffffffffffff160217905550670de0b6b3a7640000600881905550600760009054906101000a900473ffffffffffffffffffffffffffffffffffffffff1673ffffffffffffffffffffffffffffffffffffffff166108fc6008549081150290604051600060405180830381858888f19350505050158015610764573d6000803e3d6000fd5b50505050565b60096020528060005260406000206000915090505481565b60068054600181600116156101000203166002900480601f0160208091040260200160405190810160405280929190818152602001828054600181600116156101000203166002900480156108185780601f106107ed57610100808354040283529160200191610818565b820191906000526020600020905b8154815290600101906020018083116107fb57829003601f168201915b505050505081565b600560009054906101000a900473ffffffffffffffffffffffffffffffffffffffff1681565b3073ffffffffffffffffffffffffffffffffffffffff163161089c6040805190810160405280600381526020017f55524c0000000000000000000000000000000000000000000000000000000000815250610e12565b111561095b577ffee95ecae0c8f7f0743ec0ad254c78ab75e5ecca9f1ddcd9f11f9a98124b96bc60405180806020018281038252604b8152602001807f4f7261636c697a6520717565727920776173204e4f542073656e742c20706c6581526020017f6173652061646420736f6d652045544820746f20636f76657220666f7220746881526020017f652071756572792066656500000000000000000000000000000000000000000081525060600191505060405180910390a1610a86565b7ffee95ecae0c8f7f0743ec0ad254c78ab75e5ecca9f1ddcd9f11f9a98124b96bc6040518080602001828103825260358152602001807f4f7261636c697a65207175657279207761732073656e742c207374616e64696e81526020017f6720627920666f722074686520616e737765722e2e000000000000000000000081525060400191505060405180910390a1610a846040805190810160405280600381526020017f55524c0000000000000000000000000000000000000000000000000000000000815250606060405190810160405280603f81526020017f68747470733a2f2f7368616767792d656c657068616e742d33352e6c6f63616c81526020017f74756e6e656c2e6d652f6170692f7472616e73616374696f6e537461747573008152506111e2565b505b565b60085481565b600760009054906101000a900473ffffffffffffffffffffffffffffffffffffffff1681565b6000806000809054906101000a900473ffffffffffffffffffffffffffffffffffffffff1673ffffffffffffffffffffffffffffffffffffffff161480610b2457506000610b226000809054906101000a900473ffffffffffffffffffffffffffffffffffffffff16611784565b145b15610b3557610b33600061178f565b505b6000809054906101000a900473ffffffffffffffffffffffffffffffffffffffff1673ffffffffffffffffffffffffffffffffffffffff166338cc48316040518163ffffffff167c0100000000000000000000000000000000000000000000000000000000028152600401602060405180830381600087803b158015610bba57600080fd5b505af1158015610bce573d6000803e3d6000fd5b505050506040513d6020811015610be457600080fd5b810190808051906020019092919050505073ffffffffffffffffffffffffffffffffffffffff16600160009054906101000a900473ffffffffffffffffffffffffffffffffffffffff1673ffffffffffffffffffffffffffffffffffffffff16141515610d4c576000809054906101000a900473ffffffffffffffffffffffffffffffffffffffff1673ffffffffffffffffffffffffffffffffffffffff166338cc48316040518163ffffffff167c0100000000000000000000000000000000000000000000000000000000028152600401602060405180830381600087803b158015610cd057600080fd5b505af1158015610ce4573d6000803e3d6000fd5b505050506040513d6020811015610cfa57600080fd5b8101908080519060200190929190505050600160006101000a81548173ffffffffffffffffffffffffffffffffffffffff021916908373ffffffffffffffffffffffffffffffffffffffff1602179055505b600160009054906101000a900473ffffffffffffffffffffffffffffffffffffffff1673ffffffffffffffffffffffffffffffffffffffff1663c281d19e6040518163ffffffff167c0100000000000000000000000000000000000000000000000000000000028152600401602060405180830381600087803b158015610dd257600080fd5b505af1158015610de6573d6000803e3d6000fd5b505050506040513d6020811015610dfc57600080fd5b8101908080519060200190929190505050905090565b6000806000809054906101000a900473ffffffffffffffffffffffffffffffffffffffff1673ffffffffffffffffffffffffffffffffffffffff161480610e8257506000610e806000809054906101000a900473ffffffffffffffffffffffffffffffffffffffff16611784565b145b15610e9357610e91600061178f565b505b6000809054906101000a900473ffffffffffffffffffffffffffffffffffffffff1673ffffffffffffffffffffffffffffffffffffffff166338cc48316040518163ffffffff167c0100000000000000000000000000000000000000000000000000000000028152600401602060405180830381600087803b158015610f1857600080fd5b505af1158015610f2c573d6000803e3d6000fd5b505050506040513d6020811015610f4257600080fd5b810190808051906020019092919050505073ffffffffffffffffffffffffffffffffffffffff16600160009054906101000a900473ffffffffffffffffffffffffffffffffffffffff1673ffffffffffffffffffffffffffffffffffffffff161415156110aa576000809054906101000a900473ffffffffffffffffffffffffffffffffffffffff1673ffffffffffffffffffffffffffffffffffffffff166338cc48316040518163ffffffff167c0100000000000000000000000000000000000000000000000000000000028152600401602060405180830381600087803b15801561102e57600080fd5b505af1158015611042573d6000803e3d6000fd5b505050506040513d602081101561105857600080fd5b8101908080519060200190929190505050600160006101000a81548173ffffffffffffffffffffffffffffffffffffffff021916908373ffffffffffffffffffffffffffffffffffffffff1602179055505b600160009054906101000a900473ffffffffffffffffffffffffffffffffffffffff1673ffffffffffffffffffffffffffffffffffffffff1663524f3889836040518263ffffffff167c01000000000000000000000000000000000000000000000000000000000281526004018080602001828103825283818151815260200191508051906020019080838360005b83811015611154578082015181840152602081019050611139565b50505050905090810190601f1680156111815780820380516001836020036101000a031916815260200191505b5092505050602060405180830381600087803b1580156111a057600080fd5b505af11580156111b4573d6000803e3d6000fd5b505050506040513d60208110156111ca57600080fd5b81019080805190602001909291905050509050919050565b60008060008060009054906101000a900473ffffffffffffffffffffffffffffffffffffffff1673ffffffffffffffffffffffffffffffffffffffff161480611254575060006112526000809054906101000a900473ffffffffffffffffffffffffffffffffffffffff16611784565b145b1561126557611263600061178f565b505b6000809054906101000a900473ffffffffffffffffffffffffffffffffffffffff1673ffffffffffffffffffffffffffffffffffffffff166338cc48316040518163ffffffff167c0100000000000000000000000000000000000000000000000000000000028152600401602060405180830381600087803b1580156112ea57600080fd5b505af11580156112fe573d6000803e3d6000fd5b505050506040513d602081101561131457600080fd5b810190808051906020019092919050505073ffffffffffffffffffffffffffffffffffffffff16600160009054906101000a900473ffffffffffffffffffffffffffffffffffffffff1673ffffffffffffffffffffffffffffffffffffffff1614151561147c576000809054906101000a900473ffffffffffffffffffffffffffffffffffffffff1673ffffffffffffffffffffffffffffffffffffffff166338cc48316040518163ffffffff167c0100000000000000000000000000000000000000000000000000000000028152600401602060405180830381600087803b15801561140057600080fd5b505af1158015611414573d6000803e3d6000fd5b505050506040513d602081101561142a57600080fd5b8101908080519060200190929190505050600160006101000a81548173ffffffffffffffffffffffffffffffffffffffff021916908373ffffffffffffffffffffffffffffffffffffffff1602179055505b600160009054906101000a900473ffffffffffffffffffffffffffffffffffffffff1673ffffffffffffffffffffffffffffffffffffffff1663524f3889856040518263ffffffff167c01000000000000000000000000000000000000000000000000000000000281526004018080602001828103825283818151815260200191508051906020019080838360005b8381101561152657808201518184015260208101905061150b565b50505050905090810190601f1680156115535780820380516001836020036101000a031916815260200191505b5092505050602060405180830381600087803b15801561157257600080fd5b505af1158015611586573d6000803e3d6000fd5b505050506040513d602081101561159c57600080fd5b8101908080519060200190929190505050905062030d403a02670de0b6b3a7640000018111156115d2576000600102915061177d565b600160009054906101000a900473ffffffffffffffffffffffffffffffffffffffff1673ffffffffffffffffffffffffffffffffffffffff1663adf59f9982600087876040518563ffffffff167c0100000000000000000000000000000000000000000000000000000000028152600401808481526020018060200180602001838103835285818151815260200191508051906020019080838360005b8381101561168a57808201518184015260208101905061166f565b50505050905090810190601f1680156116b75780820380516001836020036101000a031916815260200191505b50838103825284818151815260200191508051906020019080838360005b838110156116f05780820151818401526020810190506116d5565b50505050905090810190601f16801561171d5780820380516001836020036101000a031916815260200191505b50955050505050506020604051808303818588803b15801561173e57600080fd5b505af1158015611752573d6000803e3d6000fd5b50505050506040513d602081101561176957600080fd5b810190808051906020019092919050505091505b5092915050565b6000813b9050919050565b60006117996117a0565b9050919050565b6000806117c0731d3b2638a7cc9f2cb3d298a3da7a90b67e5506ed611784565b111561186157731d3b2638a7cc9f2cb3d298a3da7a90b67e5506ed6000806101000a81548173ffffffffffffffffffffffffffffffffffffffff021916908373ffffffffffffffffffffffffffffffffffffffff1602179055506118586040805190810160405280600b81526020017f6574685f6d61696e6e6574000000000000000000000000000000000000000000815250611c2f565b60019050611c2c565b600061188073c03a2615d5efaf5f49f60b7bb6583eaec212fdf1611784565b11156119215773c03a2615d5efaf5f49f60b7bb6583eaec212fdf16000806101000a81548173ffffffffffffffffffffffffffffffffffffffff021916908373ffffffffffffffffffffffffffffffffffffffff1602179055506119186040805190810160405280600c81526020017f6574685f726f707374656e330000000000000000000000000000000000000000815250611c2f565b60019050611c2c565b600061194073b7a07bcf2ba2f2703b24c0691b5278999c59ac7e611784565b11156119e15773b7a07bcf2ba2f2703b24c0691b5278999c59ac7e6000806101000a81548173ffffffffffffffffffffffffffffffffffffffff021916908373ffffffffffffffffffffffffffffffffffffffff1602179055506119d86040805190810160405280600981526020017f6574685f6b6f76616e0000000000000000000000000000000000000000000000815250611c2f565b60019050611c2c565b6000611a0073146500cfd35b22e4a392fe0adc06de1a1368ed48611784565b1115611aa15773146500cfd35b22e4a392fe0adc06de1a1368ed486000806101000a81548173ffffffffffffffffffffffffffffffffffffffff021916908373ffffffffffffffffffffffffffffffffffffffff160217905550611a986040805190810160405280600b81526020017f6574685f72696e6b656279000000000000000000000000000000000000000000815250611c2f565b60019050611c2c565b6000611ac0736f485c8bf6fc43ea212e93bbf8ce046c7f1cb475611784565b1115611b2357736f485c8bf6fc43ea212e93bbf8ce046c7f1cb4756000806101000a81548173ffffffffffffffffffffffffffffffffffffffff021916908373ffffffffffffffffffffffffffffffffffffffff16021790555060019050611c2c565b6000611b427320e12a1f859b3feae5fb2a0a32c18f5a65555bbf611784565b1115611ba5577320e12a1f859b3feae5fb2a0a32c18f5a65555bbf6000806101000a81548173ffffffffffffffffffffffffffffffffffffffff021916908373ffffffffffffffffffffffffffffffffffffffff16021790555060019050611c2c565b6000611bc47351efaf4c8b3c9afbd5ab9f4bbc82784ab6ef8faa611784565b1115611c27577351efaf4c8b3c9afbd5ab9f4bbc82784ab6ef8faa6000806101000a81548173ffffffffffffffffffffffffffffffffffffffff021916908373ffffffffffffffffffffffffffffffffffffffff16021790555060019050611c2c565b600090505b90565b8060029080519060200190611c45929190611c49565b5050565b828054600181600116156101000203166002900490600052602060002090601f016020900481019282601f10611c8a57805160ff1916838001178555611cb8565b82800160010185558215611cb8579182015b82811115611cb7578251825591602001919060010190611c9c565b5b509050611cc59190611cc9565b5090565b611ceb91905b80821115611ce7576000816000905550600101611ccf565b5090565b905600a165627a7a72305820cb10897c5fbbcc72877a12f3a98f80371d2de71208214fd13c78ad374b30ad1b0029",
  "source": "pragma solidity ^0.4.21;\nimport \"installed_contracts/oraclize-api/contracts/usingOraclize.sol\";\n\n\ncontract OraclizeTest is usingOraclize {\n\n    address public owner;\n    string public ETHUSD;\n    address public account1;\n    uint public amount;\n\n    event LogInfo(string description);\n    event LogPriceUpdate(string price);\n    event LogUpdate(address indexed _owner, uint indexed _balance);\n     \n     /* This creates an array with all balances */\n    mapping (address => uint256) public balanceOf;\n    \n    // Constructor\n    function OraclizeTest()\n    payable\n    public {\n        owner = msg.sender;\n\n        emit LogUpdate(owner, address(this).balance);\n\n        // Replace the next line with your version:\n        //OAR = OraclizeAddrResolverI(0xb23Ca91D99c98448BD506e6628B51cc950f479A6);\n        //OAR = OraclizeAddrResolverI(0xaDb2b18b616bd2993e288c5B2eB4d0429CEf4Db8);\n        //OAR = OraclizeAddrResolverI(0xD3E4c7fdA9838a1f99ED78cbD8F8cB036CFDAAbc);\n        OAR = OraclizeAddrResolverI(0xC2f71a0ed5986A22aAe8fD05b6077569956059E5);\n\n        oraclize_setProof(proofType_TLSNotary | proofStorage_IPFS);\n        update();\n    }\n\n    // Fallback function\n    function()\n    public{\n        revert();\n    }\n\n    function __callback(bytes32 id, string result, bytes proof)\n    public {\n        require(msg.sender == oraclize_cbAddress());\n        \n        //account1.transfer(10);\n        //if(!address.send(this.balance)) { revert(); }\n        ETHUSD = result;\n        emit LogInfo(\"Bharat\");\n        emit LogPriceUpdate(ETHUSD);\n        //update();\n       // sendEth();\n        account1 = 0xf17f52151ebef6c7334fad080c5704d77216b732;\n        amount = 1 ether;\n        account1.transfer(amount);\n        //transfer(account1, ammount);\n        //this.sendTransaction({from: account1, value: web3.utils.toWei(amount, \"ether\"), gas: \"220000\"});\n        //this.rawTruffleInstance.sendTransaction({from: account1, value: amount, gas: \"220000\"});\n        //getBalance();\n    }\n\n    function sendEth () payable \n    public {\n        account1 = 0xf17f52151ebef6c7334fad080c5704d77216b732;\n        amount = 1 ether;\n        account1.transfer(amount);\n    }\n\n    function getBalance()\n    public\n    returns (uint _balance) {\n        return address(this).balance;\n    }\n\n    function update()\n    payable\n    public {\n        // Check if we have enough remaining funds\n        if (oraclize_getPrice(\"URL\") > address(this).balance) {\n            emit LogInfo(\"Oraclize query was NOT sent, please add some ETH to cover for the query fee\");\n        } else {\n            emit LogInfo(\"Oraclize query was sent, standing by for the answer..\");\n\n            // Using XPath to to fetch the right element in the JSON response\n            //oraclize_query(\"URL\", \"json(https://api.coinbase.com/v2/prices/ETH-USD/spot).data.amount\");\n            oraclize_query(\"URL\", \"https://shaggy-elephant-35.localtunnel.me/api/transactionStatus\");\n        }\n    }\n\n}\n\n\n\n\n\n",
  "sourcePath": "/Users/bharatverma/Blockchain/oraclize-test/contracts/OraclizeTest.sol",
  "compiler": {
    "name": "solc",
    "version": "0.4.24+commit.e67f0147.Emscripten.clang"
  },
  "schemaVersion": "2.0.1",
  "updatedAt": "2018-08-22T19:58:30.674Z"
}